:020000040000FA
:100000006400EB208613CD200522E1202C22F8206D
:100010008020F8203A08B6003B08B70086178020F9
:10002000F8203A08B8003B08B90086138020F82071
:1000300083164F30860083127A200608F300831659
:10004000403086008312731C3128F31C3828731D3E
:100050004228F31D41288613441C502844101522C1
:10006000502844140A30F107031C5028F00A502885
:100070004414F630F107031C3E28F00AFF30F00765
:1000800050288617E120F820DF200B1D4928452243
:100090001828A4013A08A3003B08A2001021182840
:1000A000E1208020F8203A08031958280B1D5A280F
:1000B00045221828C201D621D421061F6628B52161
:1000C000C208031D6D285E2219211828BC21C20810
:1000D000031D6D2869224C211828452218288316F3
:1000E0009B001C141A088312031908008C20831625
:1000F0009B0A7128FD30F4006630F50085288120C8
:1001000081207E30F4002030F500F50F8528F40FB3
:10011000852800340F39303EC003031D9128C100EB
:1001200041088616B500350E96203508F200721C7F
:10013000861172188615F21C0611F2180615721D2A
:10014000861072198614F21D0610F219061406168E
:10015000000006124230F400F40BAC2800341830D2
:10016000B300BC01BD01BE01BF013C3084000430BE
:10017000B400333080078019F039801B0F398002BA
:10018000840AB40BB928A20DA30DA40DBF0DBE0D9A
:10019000BD0DBC0DB30BB5280800812086120612D8
:1001A00003309620812003309620033096200230C1
:1001B00096200C30E9202830E9200630E920013073
:1001C000E4280930C0000230E6207A2886129228FE
:1001D000C030E620AA2806309F00831600309F001A
:1001E00037308100F73085004030860083120800E8
:1001F0000B118101BA01BB018316E7308500812014
:10020000F730850083120108BA008316011600003A
:1002100001128312BB0301083A06031905290800DD
:10022000AF207B217D217F21812183218521872191
:10023000892943088C203C080F39031925298A2075
:100240007F2181217921832138293D0E0F3903191E
:100250002F298A20812179218321852138293D0870
:100260000F39031939298A20792183218521872192
:100270007D2A3E0E0F39031D462920308C203E0872
:100280000F39031D472920308C20482983218521DF
:10029000872179218921742A43088C203C080F3951
:1002A000031958298A207F217921812183216129FD
:1002B0003D0E0F39031962298A207921812183217A
:1002C00085218F2A3D080F3903196C298A20832143
:1002D00085217921872178293E0E0F39031D732945
:1002E00020308C207429832185217921872189213F
:1002F000862A2E308C283C0E8A283C088A283D0EFF
:100300008A283D088A283E0E8A283E088A283F0E01
:100310008A283F088A286C249029F4239029A42352
:10032000C2043008A9003108AA003208AB00080056
:100330002908B0002A08B1002B08B2002308A90040
:100340002408AA002508AB0008002308A9062906EE
:10035000A906A3002408AA062A06AA06A4002508BE
:10036000AB062B06AB06A50008008D21F2218F21DC
:10037000E621A5218D21CA298F21DE218F21F2219D
:10038000A5218D21F42198218F21A5218D21E62100
:10039000A5218F21A41FCE292D30CF292030C300C5
:1003A000A4134823C204AF28F821D729F621F42149
:1003B0008D2198218F21EC21A5218B299821B830FE
:1003C000A5006030A400FA30A30008009821A50120
:1003D000A401A3010630012A9821A501A401A301CB
:1003E0000130012A7030F9293630F9293830F929DD
:1003F0003A3084009821A501A4010008A300840AD2
:100400000008A200C222C204080083162D309B00FF
:1004100083121022F0000E22F100080083169B0ABE
:1004200083161C141A088312080083162D309B00B3
:1004300070081F2271081E22831208009B0A9A006E
:100440001C1555309D00AA309D009C149C18262A2E
:1004500083128C138316080020308C2043308C20AC
:1004600041308C204C308C2049308C2042308C2004
:1004700052308C2041308C204E308C2044308C20E7
:100480004F308C2020308C20080020308C204F30C2
:100490008C2056308C2045308C2052308C202030DF
:1004A0008C2052308C2041308C204E308C204730B4
:1004B0008C2045308C2020308C20080020308C206F
:1004C00043308C2020308C203D308C2020308C20FC
:1004D000080020308C204C308C2020308C203D3087
:1004E0008C2020308C20080020308C2070308C2014
:1004F00046308C2020308C20080020308C206E303C
:100500008C2046308C2020308C20080020308C201D
:1005100075308C2048308C2020308C200800203012
:100520008C206D308C2048308C2020308C200800AE
:100530008E30A5002408A600A41FA32AA309A4099D
:10054000A30A0319A40AAF012408031DAD2A230836
:10055000A4000319BD2AA301AF152F08A502031D8E
:10056000031C602C0310A41BBA2AA30DA40DA50B19
:10057000B32A602CA61FA4130034A401A301A20176
:10058000A50100349630A500A601A41FD02AA20917
:10059000A309A409A20A0319A30A0319A40AA61706
:1005A000AF012408031DE52A2308A4002208A300A4
:1005B000A201AF152408031DE52A2308A400A30106
:1005C000AF112F1624080319BD2A2F08A502031DF9
:1005D000031C602C0310A41BF32AA20DA30DA40D71
:1005E000A50BEB2A602C271B231CBA2AA21FBA2AB0
:1005F000A30A0319A40A031DBA2AA40CA30CA50A72
:100600000319EA2BBA2A2508031900342408A60086
:10061000A4178E30A502A51F3D2BA509A50A0830F9
:100620002502031C232BA500A30D2408A300A4016D
:1006300008302502031C232BA500A30DA3012508C8
:10064000031D03102B2B250803192B2B0310A40CBF
:10065000A30CA50B262B271B231C352B031C352B8A
:10066000A30A0319A40AA41B3D2BA61F0034A30947
:10067000A409A30A0319A40A00342714A71FFF34EE
:10068000A401A61FFF30A400A300A60DA40CFF34F4
:10069000A2012508031900342408A600A4179630E7
:1006A000A502A51F982BA509A50A08302502031C41
:1006B000742BA500A20D2308A2002408A300A40106
:1006C00008302502031C742BA500A20D2308A200EC
:1006D000A30108302502031C742BA500A20DA20162
:1006E0002508031D03107D2B250803197D2B0310FE
:1006F000A40CA30CA20CA50B772B271B221C892B67
:10070000031C892BA20A0319A30A0319A40AA41B18
:10071000982BA61F0034A409A309A209A20A031951
:10072000A30A0319A40A0034A401A301A2010034FE
:100730002714A71FFF34A401A61FFF30A400A300A5
:10074000A200A60DA40CFF342508031D2B080319D5
:10075000BD2A24082A06A6002B08A5077E30031C04
:10076000B52BA5020318EA2BB82BA502031C602C9D
:100770002408A2002308A100A217AA170310A401AD
:10078000A3011030AF00211CCB2B2908A3072A0896
:1007900003182A0FA407A40CA30CA20CA10C03108D
:1007A000AF0BC32BA41BD82BA20DA30DA40DA50327
:1007B000271B231CE72BA21FE72BA30A0319A40A5C
:1007C000031DE72BA40CA30CA50A0319EA2BA61FF3
:1007D000A4130034A714A71FFF34FF30A500A40002
:1007E000A300A60DA40CFF342B0803196A2C2508BE
:1007F0000319BD2A24082A06A600A417AA17AF01C8
:100800002408A2002308A1002908A1022A08031C29
:100810002A0FA202A201A101031C142C0310A40C94
:10082000A30CA20C0130AF002B08A502031C1E2C48
:100830007E302F07A5070318EA2B232C7E302F07C5
:10084000A507031C602C1030AE00A10DA20DA30D56
:10085000A40DAF0D2908A3022A08031C2A0FA40225
:100860002A0DAF042F1C362C21143D2C2908A30778
:100870002A0803182A0AA4072110AE0B252C271BCF
:10088000211C592C0310A30DA40DAF0D2908A302A0
:100890002A08031C2A0FA4022A0D2F040139A107DC
:1008A0000318A20A031D592CA20CA10CA50A0319B6
:1008B000EA2BA61FA2132208A4002108A3000034DB
:1008C0002715A71FFF340130A500A401A301A60D21
:1008D000A40CFF34A715FF348030AA0624082A068A
:1008E000AF00A201A80125082B02031C892C2B08AC
:1008F000A0002508AB002008A5002A08A0002408B5
:10090000AA002008A4002908A0002308A9002008A4
:10091000A3002B08031900342408A600A417AA1763
:100920002B082502AB000319AF2C08302B02031C47
:10093000A62CAB002908A8002A08A900AA010830A3
:100940002B02031CA62C2608A40000342B08031934
:10095000AF2C0310AA0CA90CA80CAB0BA92CAF1F31
:10096000B92CA809A909AA09A80A0319A90A0319EF
:10097000AA0A2808A20729080318290FA3072A088A
:1009800003182A0FA407AF1BCD2C031CF32AA40CB9
:10099000A30CA20CA50FF32AEA2B0318D02AA20954
:1009A000A309A409A20A0319A30A0319A40A8030FF
:0409B000A606A32ACA
:02400E00623F0F
:1042000020006E0046000000200070004600000004
:1042100020006D00480000002000750048000000EC
:104220002000430020003D002000000020004C0042
:1042300020003D002000000020002000200043005E
:1042400061006C0069006200720061007400690026
:0E4250006E0067002000200000002700100014
:00000001FF
