:1000000000308A00332800000A108A100A11820783
:1000100020342034203425346334253463342534AB
:100020006334253463342E342E342E346F346B34E1
:100030002134213421340034253084008313000816
:10004000031930280130F800F701F70B2528F80BC9
:1000500024284A30F700F70B2B282E28800B222863
:100060008A110A129F28840183131F3083053330BD
:1000700083169900A230980090308312980083165E
:100080001F149F141F159F1107309C00FF3083120F
:10009000A40083161F149F141F159F1183121F1095
:1000A0008316091283129412A4122408831687005F
:1000B000831224162408831687008312A4112408AF
:1000C0008316870001308312940000308316940059
:1000D0000108C73908388100831290010030F80008
:1000E000920000308316920007309C000508033010
:1000F000F700F70B79281C0883120D1383169D0156
:10010000091089100911831289018C1E85281A088B
:10011000A0008C1E89281A08A1008C1E8D281A08A0
:10012000A2008C1E91281A08A300831609108910BA
:100130000911FF3083128900C830A5001C288316DE
:100140000910891009118312890120300C1EA6287C
:10015000990020300C1EAA28990020300C1EAE28D1
:10016000990020080C1EB228990021080C1EB62800
:10017000990022080C1EBA28990023080C1EBE28DC
:1001800099000B30A50025080420A50AF700770880
:100190000C1EC828990013302502031DC32885288A
:0201A0006300FA
:02400E00313946
:00000001FF
;PIC16F877A
