:1000000000308A00B12800000A108A100A11820705
:100010006D346F346D3465346E3474346F34203421
:1000200061347434753461346C343A34203425349A
:10003000693400342A08F801290203182228290803
:10004000F7002E28F7010830AB00A90DF70D2A089C
:1000500077020318F700F80DAB0B25280034203089
:10006000241E3030A5002308F700A31F3E28F709FF
:10007000F70A7708A3002D30A500A4172308A900CC
:100080006430AA001A207708A30030307807A60051
:100090002308A9000A30AA001A2030307707A800E8
:1000A00030307807A7002508F700A41D5928A41FA1
:1000B0002411241A6628A41F81282419812877086E
:1000C000A600A41881287708A700812830302602CE
:1000D000031D81287708A6002030A500A41D7428E0
:1000E0002411A414A41FA41030302702031D81285A
:1000F0007708A7002030A600A41D7428A410A41F10
:100100002410241D872825080C1E84289900A41C6F
:100110008D2826080C1E8A289900241C932827085D
:100120000C1E9028990028080C1E942899008A110A
:100130000A12122923308400831300080319AE2801
:100140000130F800F701F70BA328F80BA2284A307A
:10015000F700F70BA928AC28800BA0288A110A12F7
:100160001829840183131F308305193083169900E1
:10017000A630980090308312980083161F149F14A5
:100180001F159F1107309C008312A001FF30A100B2
:1001900083161F149F141F159F1183121F1083169F
:1001A000091283129412A112210883168700831268
:1001B00021162108831687008312A11121088316B6
:1001C00087000130831294000030831694000108E8
:1001D000C73908388100831290010030F80092007E
:1001E00000308316920007309C0005080330F700AA
:1001F000F70BF8281C0883120D1383169D01831238
:10020000A20122080420A20AF70077080C1E062982
:1002100099000F302202031D01292008A3001F307E
:10022000A4002F28A00A2830A200FA30A3009A28A0
:08023000A20B1529002963004F
:02400E00313946
:00000001FF
;PIC16F877A
